:100000000C945E000C9486000C9486000C94860080
:100010000C9486000C9486000C9486000C94FC04CE
:100020000C9486000C9486000C9486000C94860038
:100030000C9486000C9486000C9486000C94860028
:100040000C94B0050C9486000C947E050C94580515
:100050000C9486000C9486000C9486000C94860008
:100060000C9486000C948600000000080002010039
:100070000003040700000000000000000200000070
:1000800000250028002B0000000000240027002A83
:100090000004040404040404040202020202020331
:1000A000030303030301020408102040800102043B
:1000B00008102001020408102000FA0511241FBEB8
:1000C000CFEFD8E0DEBFCDBF11E0A0E0B1E0ECE9BA
:1000D000F5E102C005900D92A832B107D9F722E0F0
:1000E000A8E2B1E001C01D92A93EB207E1F710E01D
:1000F000CEE5D0E004C02197FE010E94B20ACD35C2
:10010000D107C9F70E94B9060C94CC0A0C940000E0
:1001100090E0FC01EB55FF4F24918F569F4FFC015F
:100120008491882399F090E0880F991FFC01E9578A
:10013000FF4FA591B491FC01E358FF4F8591949135
:100140008FB7F894EC91E22BEC938FBF0895AF92A8
:10015000BF92CF92DF92EF92FF920F931F93CF93B4
:10016000DF936C017B018B01040F151FEB015E0116
:10017000AE18BF08C017D10759F06991D601ED91AB
:10018000FC910190F081E02DC6010995892B79F74A
:10019000C501DF91CF911F910F91FF90EF90DF90FC
:1001A000CF90BF90AF900895FC01538D448D252FC3
:1001B00030E0842F90E0821B930B541710F0CF9601
:1001C000089501970895FC01918D828D981761F033
:1001D000A28DAE0FBF2FB11D5D968C91928D9F5F4A
:1001E0009F73928F90E008958FEF9FEF0895FC0129
:1001F000918D828D981731F0828DE80FF11D858DDC
:1002000090E008958FEF9FEF0895FC01918D228D6E
:10021000892F90E0805C9F4F821B91098F739927F3
:1002200008958AE491E00E94050121E0892B09F4F8
:1002300020E0822F089580E090E0892B29F00E9431
:10024000110181110C9400000895FC01A48DA80FE8
:10025000B92FB11DA35ABF4F2C91848D90E0019608
:100260008F739927848FA689B7892C93A089B18928
:100270008C91837080648C93938D848D981306C0C9
:100280000288F389E02D80818F7D80830895EF922D
:10029000FF920F931F93CF93DF93EC0181E0888F40
:1002A0009B8D8C8D98131AC0E889F989808185FF10
:1002B00015C09FB7F894EE89FF896083E889F989B2
:1002C00080818370806480839FBF81E090E0DF91B4
:1002D000CF911F910F91FF90EF900895F62E0B8D07
:1002E00010E00F5F1F4F0F731127E02E8C8D8E11C2
:1002F0000CC00FB607FCFACFE889F989808185FF29
:10030000F5CFCE010E942501F1CFEB8DEC0FFD2F33
:10031000F11DE35AFF4FF0829FB7F8940B8FEA89E3
:10032000FB8980818062CFCFCF93DF93EC01888DF2
:100330008823B9F0AA89BB89E889F9898C9185FD60
:1003400003C0808186FD0DC00FB607FCF7CF8C91EE
:1003500085FFF2CF808185FFEDCFCE010E94250180
:10036000E9CFDF91CF91089590E0FC01E859FF4F6C
:100370002491FC01EB55FF4F3491FC01EF56FF4FE8
:10038000E491EE23C9F0222339F0233001F1A8F4DF
:10039000213019F1223029F1F0E0EE0FFF1FE35870
:1003A000FF4FA591B4918FB7F894EC91611126C0DD
:1003B00030953E233C938FBF08952730A9F0283015
:1003C000C9F0243049F7809180008F7D03C080916F
:1003D00080008F7780938000DFCF84B58F7784BDD6
:1003E000DBCF84B58F7DFBCF8091B0008F7780937A
:1003F000B000D2CF8091B0008F7DF9CF3E2BDACF05
:100400009091080189130BC0ECE7F0E0E4919FEFB5
:1004100090930801E13049F028F0E23061F060E0AB
:100420000C94B40110926E00FACF90916F009D7FF2
:1004300090936F00F4CF909170009D7F9093700027
:1004400091E09093B0009091B100987F9460909368
:10045000B1001092B300E3CF3FB7F89480912A0126
:1004600090912B01A0912C01B0912D0126B5A89B54
:1004700005C02F3F19F00196A11DB11D3FBFBA2F36
:10048000A92F982F8827BC01CD01620F711D811DF6
:10049000911D42E0660F771F881F991F4A95D1F77B
:1004A00008958F929F92AF92BF92CF92DF92EF9278
:1004B000FF924B015C010E942C026B017C010E94A7
:1004C0002C026C197D098E099F09683E73408105D5
:1004D0009105A8F321E0821A9108A108B10888EEDD
:1004E000C80E83E0D81EE11CF11C81149104A10404
:1004F000B10429F7FF90EF90DF90CF90BF90AF90BD
:100500009F908F9008958091490190E02091430140
:1005100030914401281739078CF0AC014D5F5F4FD3
:10052000421753075CF0425051092417350749F030
:10053000821793074CF483E090E0089590E080E008
:10054000089581E090E0089582E090E00895FF92A0
:100550000F931F93CF93DF930091430110914401B8
:10056000C0914701D09148010115110561F0209714
:1005700039F00730110549F0C630D10509F03CC00B
:100580008FEF9FEF07C02097D9F381E090E0C6304E
:10059000D105B1F3E0912801E83058F5F0E0ED52D3
:1005A000FD4F0C94B20ADB02F202F60213031703AA
:1005B0000F0309030B0384E08093280184E0C63015
:1005C000D10501F5F09028010E9483028230910547
:1005D00009F478C0039781F4F1107EC081E0809324
:1005E00028010AC00197E9F487E001C086E0809302
:1005F0002801C630D10531F3809128018823E9F024
:100600008430F1F407301105D9F48F5F809328010D
:1006100017C082E0ECCF019741F481E0E8CF019769
:1006200019F783E0E4CF0197C1F785E0E0CF10929E
:10063000280180E0C630D10529F20115110529F302
:1006400080912801811106C00730110519F487E057
:100650008093280180912801843031F4011511051F
:1006600019F483E08093280180912801823029F4D5
:10067000209719F483E0809328018091280182302B
:1006800031F4C630D10519F481E0809328018091BE
:100690002801863029F4209719F485E080932801F9
:1006A000809128018630D1F4C630D105B9F487E0B5
:1006B0008093280101151105D9F00730110509F4BF
:1006C00063C019C087E0FF2009F489CF81E0F812E8
:1006D00093CF1092280190CF87E0F9CF0115110533
:1006E00009F04BC083E0209721F0C630D10519F402
:1006F00081E080932801D0934601C0934501809109
:1007000028019DEF980F933008F040C02196D093B8
:100710004801C09347019FEF980F9330E8F50F5FB2
:100720001F4F109344010093430180914301909126
:1007300044018830910514F087E090E097FF02C0F3
:1007400090E080E0909344018093430180914701C1
:10075000909148018730910514F086E090E097FF72
:1007600002C090E080E09093480180934701DF91C0
:10077000CF911F910F91FF9008950730110509F057
:10078000BACFC630D10569F487E0B3CF982F9B7FED
:10079000923009F22197BBCF8B7F39F201501109BA
:1007A000C0CF85E0209709F4A4CFA5CFCF92DF92E8
:1007B000EF92FF920F931F93CF93DF9300D0CDB7AB
:1007C000DEB769834A83880F991F00913D0210911B
:1007D0003E02000F111FE7EEF1E09F01275E31405E
:1007E0002017310714F41192F8CF2981FC01E95147
:1007F000FE4F21838A81808360E080913B020E94CA
:10080000B4011016110604F501501109F801E9515F
:10081000FE4FE080D0903902C090370288E0F82E79
:100820006E2D661F6627661F8C2D0E94B401EE0C8C
:1008300061E08D2D0E94B40160E08D2D0E94B40115
:10084000FA94F110EDCFDDCF61E080913B020F9083
:100850000F90DF91CF911F910F91FF90EF90DF905C
:10086000CF900C94B401EF92FF921F93CF93DF933C
:1008700020913D0230913E0282179307B4F4EC01BF
:1008800023E0880F991F2A95E1F79C0129503E4FDC
:10089000790111E0F70111927F0140E0612FCE0153
:1008A0000E94D6031F5F1930A9F7DF91CF911F91E6
:1008B000FF90EF900895462F20913D0230913E0227
:1008C000121613066CF48830910550F4FC01E951BE
:1008D000FE4F608B61E0680F90E080E00C94D603DF
:1008E00008950F931F93CF93DF938C01D0E0C0E066
:1008F000F80161918F01CE010E945B042196C830FE
:10090000D105B1F7DF91CF911F910F910895CF924B
:10091000DF92EF92FF920F931F93CF9390E080E0CE
:100920000E9433040E94E30926E030E040E050E0FA
:100930000E943B0A6F5F7F4F8F4F9F4F7093440120
:100940006093430181E090E09093480180934701D8
:100950000E94E30923E030E040E050E00E943B0ABF
:100960006D5F7F4F8F4F9F4F6093280107EE11E01F
:10097000C1E080E8C82ED12CF12CE12C80913D0201
:1009800090913E021816190684F4F8014089C601B8
:100990000E2C02C0959587950A94E2F7482B408B60
:1009A0006C2F90E080E00E94D60362E370E080E06C
:1009B00090E00E945102FFEFEF1AFF0A88E0E8166C
:1009C000F104E1F60F5F1F4FCF5FC930A9F680E059
:1009D00091E00E9471046CED75E080E090E00E946F
:1009E000510290E080E0CF911F910F91FF90EF9026
:1009F000DF90CF900C9433041F920F920FB60F929A
:100A000011242F933F934F935F936F937F938F9313
:100A10009F93AF93BF93EF93FF9380913301909196
:100A20003401A0913501B0913601892B8A2B8B2B93
:100A3000D1F190912E01E0912F01F0913001808150
:100A4000892780838091330190913401A0913501F1
:100A5000B0913601181619061A061B069CF48091EF
:100A6000330190913401A0913501B0913601019785
:100A7000A109B1098093330190933401A09335010A
:100A8000B0933601FF91EF91BF91AF919F918F91FC
:100A90007F916F915F914F913F912F910F900FBE7A
:100AA0000F901F901895809108010E940002EACFD4
:100AB0001F920F920FB60F9211242F933F934F93D3
:100AC0005F936F937F938F939F93AF93BF93EF93B6
:100AD000FF938AE491E00E942501FF91EF91BF917D
:100AE000AF919F918F917F916F915F914F913F91C6
:100AF0002F910F900FBE0F901F9018951F920F927D
:100B00000FB60F9211242F938F939F93EF93FF9320
:100B1000E0915A01F0915B018081E0916001F091D8
:100B2000610182FD1BC09081809163018F5F8F7393
:100B300020916401821741F0E0916301F0E0E65BEF
:100B4000FE4F958F80936301FF91EF919F918F915D
:100B50002F910F900FBE0F901F9018958081F4CFAA
:100B60001F920F920FB60F9211242F933F938F93E2
:100B70009F93AF93BF9380913F0190914001A091CB
:100B80004101B09142013091290123E0230F2D371B
:100B900058F50196A11DB11D2093290180933F01B5
:100BA00090934001A0934101B093420180912A01AA
:100BB00090912B01A0912C01B0912D010196A11DC6
:100BC000B11D80932A0190932B01A0932C01B09327
:100BD0002D01BF91AF919F918F913F912F910F90D8
:100BE0000FBE0F901F90189526E8230F0296A11DA7
:100BF000B11DD2CFCF93DF9310924D0110924C01D3
:100C000088EE93E0A0E0B0E080934E0190934F0116
:100C1000A0935001B093510189E191E090934B0171
:100C200080934A0185EC90E09093570180935601A0
:100C300084EC90E0909359018093580180EC90E00F
:100C400090935B0180935A0181EC90E090935D0159
:100C500080935C0182EC90E090935F0180935E0151
:100C600086EC90E0909361018093600110926301A3
:100C700010926401109265011092660110923F0279
:100C8000109250021092610210927202109283022E
:100C9000109294021092A5021092B6021092C7020E
:100CA0001092D802CCE0D0E0D0933802C093370243
:100CB0008BE090E090933A02809339028AE090E0D2
:100CC00090933C0280933B0281E090E090933E023F
:100CD00080933D028CE00E948800809139020E943E
:100CE000880080913B020E94880061E080913B0275
:100CF0000E94B401D0933802C0933702E7EFF1E0CD
:100D000087E392E011928E179F07E1F7D0E0C0E0F1
:100D100080913D0290913E02C817D9073CF540E012
:100D20006FE0CE010E94D60380913D0290913E0279
:100D3000C817D9072CF447E06BE0CE010E94D60318
:100D400040E069E0CE010E94D603CE010E94330448
:100D500080913D0290913E02C817D9072CF440E0E3
:100D60006CE0CE010E94D6032196D2CFDF91CF91C5
:100D70000895CF93DF93CDB7DEB728970FB6F894D9
:100D8000DEBF0FBECDBF789484B5826084BD84B5CC
:100D9000816084BD85B5826085BD85B5816085BD76
:100DA00080916E00816080936E001092810080912E
:100DB00081008260809381008091810081608093B6
:100DC0008100809180008160809380008091B100DB
:100DD00084608093B1008091B00081608093B00006
:100DE00080917A00846080937A0080917A0082609A
:100DF00080937A0080917A00816080937A0080915C
:100E00007A00806880937A001092C10089E00E9485
:100E1000880088E00E948800E0915A01F0915B010F
:100E200082E08083E0915601F09157011082E091B9
:100E30005801F09159018FEC808310926201E0918A
:100E40005E01F0915F0186E08083E0915C01F091AA
:100E50005D01808180618083E0915C01F0915D01A2
:100E6000808188608083E0915C01F0915D018081E8
:100E700080688083E0915C01F0915D0180818F7DCD
:100E8000808380913D0290913E021816190634F439
:100E900041E06CE090E080E00E94D60380913D024A
:100EA00090913E021816190634F448E06AE090E08A
:100EB00080E00E94D60390E080E00E94330480E44A
:100EC00080937C0080917A00806480937A00809186
:100ED0007A0086FDFCCF8091780060917900762FB2
:100EE000682F072E000C880B990B61157105810581
:100EF000910511F00E94320A0E948704EFE3F2E0AC
:100F000090E080E02081222309F4E5C101967196EA
:100F10008A309105B9F789E9C82E80E0D82E882457
:100F20008A94982C54010DEAE02E00E0F02E8AE419
:100F300091E00E940501892B81F08AE491E00E94F2
:100F4000E30060E08633910529F08733910509F0CD
:100F5000CCC061E089E00E94B4010FE312E0D80147
:100F60008C91882309F43FC08FB7F89440903F01DB
:100F70005090400160904101709042018FBFF80194
:100F800083859485A585B685B301A201481B590BBD
:100F90006A0B7B0B81819281A381B4814817590729
:100FA0006A077B0788F08081813009F482C1823032
:100FB00009F484C1F8014386548665867686878560
:100FC00090890196908B8787D80115968D919C9179
:100FD000169797FD08C01F962D913C9150972817A2
:100FE00039070CF01C920F5E1F4FE9EEF2E0E0179C
:100FF000F10709F0B4CF809145019091460100912D
:101000004701109148018017910719F060E00E9494
:101010005B0461E070E00090430102C0660F771F3F
:101020000A94E2F7C8010E945B048091490167E0DD
:1010300070E001C0660F8A95EAF787E090E00E94B1
:101040005B040630110509F03DC00E948302892B24
:10105000C9F589E091E00E9471046CED75E080E0D3
:1010600090E00E94510290E080E00E94330408E08A
:1010700010E028E3722E30E2632E4EEB542E55E83A
:10108000452E65EE362E76EE272E29823A824B8249
:101090005C826D827E826F827886CE0101960E948C
:1010A000710464EF71E080E090E00E9451022694A8
:1010B000369446945694669476940150110929F713
:1010C0000E9487046AE070E080E090E00E94510294
:1010D00080E090E0892B09F42ACF0E941101882337
:1010E00009F425CF0E9400001ECF8833910509F036
:1010F000D9C080910801883029F5ECE7F0E014911F
:1011000017FDBEC088E00E948800112309F489C041
:10111000123009F09AC08091B100887F836080937B
:10112000B10089EF8093B300809233019092340133
:10113000A0923501B0923601809170008260809358
:1011400070009EC08F3F09F09BC088E0809308012B
:10115000ECE7F0E014911F3F09F492C0113011F157
:1011600048F0123009F43BC017FD8AC088E00E94A5
:101170008800CECF14BC15BC84B5826084BD85B513
:10118000816085BDF6018491E82FF0E0EE0FFF1F2E
:10119000E358FF4F85919491F70184918093320138
:1011A00010E0B0CF109280001092810080918100F9
:1011B00088608093810080918100816080938100AC
:1011C000F6018491E82FF0E0EE0FFF1FE358FF4F88
:1011D00085919491F70184918093310193CF10927E
:1011E000B0001092B1008091B00082608093B00096
:1011F0008091B10081608093B100F6018491E82F65
:10120000F0E0EE0FFF1FE358FF4F8591949190930C
:10121000300180932F01F701849180932E0112E019
:1012200071CF85B5887F836085BD8CE787BD80924F
:101230003B0190923C01A0923D01B0923E01809111
:101240006E00826080936E001BC0113019F5809192
:101250008100887F8160809381008FE39FE190937C
:101260008900809388008092370190923801A09283
:101270003901B0923A0180916F00826080936F00D3
:1012800064E670E080E090E00E94510288E00E94F5
:10129000000263CE123021F01111F2CF8FE3C6CFDE
:1012A0008FE340CF66E070E00E949E0A8093490180
:1012B00054CE0184F285E02D09957CCE61E08085D5
:1012C000811160E0D80118966C93189717968C914D
:1012D0000E94B4016FCE21E1289FF001299FF00DFB
:1012E0001124E15CFD4F81E0808380E991E0A0E082
:1012F000B0E081839283A383B4838FEF9FEF9683C3
:10130000858387EA92E0928781872FB7F89480914E
:101310003F0190914001A0914101B09142012FBF46
:1013200083879487A587B687108A1786F4CD8F9216
:101330009F92AF92BF92CF92DF92EF92FF92CF93A4
:10134000DF93EC01688179818A819B816115710548
:101350008105910521F464E279ED8BE597E02DE1BB
:1013600033EF41E050E00E943B0A49015A019B01E2
:10137000AC01A7EAB1E40E945A0A6B017C01ACEE11
:10138000B4EFA50194010E94680AC60ED71EE81E9C
:10139000F91EF7FE06C081E0C81AD108E10880E80E
:1013A000F80AC882D982EA82FB82C701B6019F7718
:1013B000DF91CF91FF90EF90DF90CF90BF90AF90F3
:1013C0009F908F9008958F929F92AF92BF92CF92ED
:1013D000DF92EF92FF926091110170911201809162
:1013E000130190911401611571058105910521F496
:1013F00064E279ED8BE597E02DE133EF41E050E0D9
:101400000E943B0A49015A019B01AC01A7EAB1E4E1
:101410000E945A0A6B017C01ACEEB4EFA501940165
:101420000E94680AC60ED71EE81EF91EF7FE06C007
:1014300081E0C81AD108E10880E8F80AC0921101D9
:10144000D0921201E0921301F0921401C701B6018B
:101450009F77FF90EF90DF90CF90BF90AF909F90DD
:101460008F9008956093110170931201809313017E
:10147000909314010895052E97FB1EF400940E948A
:10148000520A57FD07D00E946D0A07FC03D04EF4A4
:101490000C94520A50954095309521953F4F4F4FEF
:1014A0005F4F089590958095709561957F4F8F4F10
:1014B0009F4F08950E948F0AA59F900DB49F900D95
:1014C000A49F800D911D11240895B7FF0C945A0A12
:1014D0000E945A0A821B930B0895A1E21A2EAA1B9E
:1014E000BB1BFD010DC0AA1FBB1FEE1FFF1FA217D4
:1014F000B307E407F50720F0A21BB30BE40BF50BD1
:10150000661F771F881F991F1A9469F76095709559
:10151000809590959B01AC01BD01CF010895A29FDC
:10152000B001B39FC001A39F700D811D1124911DB7
:10153000B29F700D811D1124911D089597FB072EF8
:1015400016F4009407D077FD09D00E94B80A07FC72
:1015500005D03EF4909581959F4F089570956195C3
:101560007F4F0895EE0FFF1F0590F491E02D099431
:10157000AA1BBB1B51E107C0AA1FBB1FA617B707B9
:1015800010F0A61BB70B881F991F5A95A9F78095D5
:0C1590009095BC01CD010895F894FFCFA8
:10159C000044101010443800FF0044101000384470
:1015AC000001000000000000004701A700D40094D7
:0815BC00010501E300F7000046
:00000001FF
